{
  "contractName": "User",
  "abi": [
    {
      "inputs": [
        {
          "internalType": "address",
          "name": "_employeeAddress",
          "type": "address"
        },
        {
          "internalType": "string",
          "name": "_employeeName",
          "type": "string"
        }
      ],
      "name": "addEmployee",
      "outputs": [],
      "stateMutability": "nonpayable",
      "type": "function"
    },
    {
      "inputs": [
        {
          "internalType": "address",
          "name": "_employeeAddress",
          "type": "address"
        }
      ],
      "name": "changeAccess",
      "outputs": [],
      "stateMutability": "nonpayable",
      "type": "function"
    },
    {
      "inputs": [
        {
          "internalType": "string",
          "name": "_name",
          "type": "string"
        },
        {
          "internalType": "string",
          "name": "_desc",
          "type": "string"
        },
        {
          "internalType": "string",
          "name": "_url",
          "type": "string"
        },
        {
          "internalType": "uint8",
          "name": "_bounty",
          "type": "uint8"
        }
      ],
      "name": "createCourse",
      "outputs": [],
      "stateMutability": "nonpayable",
      "type": "function"
    },
    {
      "inputs": [
        {
          "internalType": "string",
          "name": "username",
          "type": "string"
        }
      ],
      "name": "createEmployer",
      "outputs": [],
      "stateMutability": "nonpayable",
      "type": "function"
    },
    {
      "inputs": [
        {
          "internalType": "uint8",
          "name": "_courseId",
          "type": "uint8"
        }
      ],
      "name": "startCourse",
      "outputs": [
        {
          "internalType": "string",
          "name": "courseUrl",
          "type": "string"
        }
      ],
      "stateMutability": "nonpayable",
      "type": "function"
    },
    {
      "inputs": [
        {
          "internalType": "uint8",
          "name": "_courseId",
          "type": "uint8"
        }
      ],
      "name": "subscribeCourse",
      "outputs": [
        {
          "internalType": "bool",
          "name": "",
          "type": "bool"
        }
      ],
      "stateMutability": "nonpayable",
      "type": "function"
    },
    {
      "inputs": [],
      "name": "fetchCourses",
      "outputs": [
        {
          "components": [
            {
              "internalType": "uint8",
              "name": "id",
              "type": "uint8"
            },
            {
              "internalType": "string",
              "name": "name",
              "type": "string"
            },
            {
              "internalType": "string",
              "name": "desc",
              "type": "string"
            },
            {
              "internalType": "address",
              "name": "owner",
              "type": "address"
            },
            {
              "internalType": "string",
              "name": "url",
              "type": "string"
            },
            {
              "internalType": "uint8",
              "name": "bounty",
              "type": "uint8"
            }
          ],
          "internalType": "struct User.Course[]",
          "name": "courseList",
          "type": "tuple[]"
        }
      ],
      "stateMutability": "view",
      "type": "function"
    },
    {
      "inputs": [],
      "name": "fetchEmployees",
      "outputs": [
        {
          "components": [
            {
              "internalType": "address",
              "name": "_address",
              "type": "address"
            },
            {
              "internalType": "string",
              "name": "username",
              "type": "string"
            },
            {
              "internalType": "enum User.Access",
              "name": "access",
              "type": "uint8"
            }
          ],
          "internalType": "struct User.Employee[]",
          "name": "",
          "type": "tuple[]"
        }
      ],
      "stateMutability": "view",
      "type": "function"
    },
    {
      "inputs": [
        {
          "internalType": "address",
          "name": "_address",
          "type": "address"
        }
      ],
      "name": "getUserName",
      "outputs": [
        {
          "internalType": "string",
          "name": "username",
          "type": "string"
        }
      ],
      "stateMutability": "view",
      "type": "function"
    },
    {
      "inputs": [
        {
          "internalType": "address",
          "name": "user",
          "type": "address"
        }
      ],
      "name": "getUserType",
      "outputs": [
        {
          "internalType": "uint256",
          "name": "",
          "type": "uint256"
        }
      ],
      "stateMutability": "view",
      "type": "function"
    }
  ],
  "bytecode": "0x608060405234801561001057600080fd5b5061103e806100206000396000f3fe608060405234801561001057600080fd5b506004361061008f576000357c010000000000000000000000000000000000000000000000000000000090048063c95d75f01161006d578063c95d75f0146100e8578063d84f55ee146100fb578063f403688a1461011b57600080fd5b80630a67a48d146100945780638b3f863f146100b2578063a502e808146100d3575b600080fd5b61009c61012e565b6040516100a99190610ca8565b60405180910390f35b6100c56100c0366004610d95565b6103c1565b6040519081526020016100a9565b6100e66100e1366004610e73565b61043a565b005b6100e66100f6366004610ec1565b6107ef565b61010e610109366004610d95565b610945565b6040516100a99190610efe565b6100e6610129366004610d95565b6109fe565b3360009081526004602052604090205460609060ff166101d5576040517f08c379a000000000000000000000000000000000000000000000000000000000815260206004820152602660248201527f4f6e6c7920616e20456d706c6f7965722063616e206d616b652074686973207260448201527f657175657374000000000000000000000000000000000000000000000000000060648201526084015b60405180910390fd5b3360009081526002602052604081205474010000000000000000000000000000000000000000900460ff16908167ffffffffffffffff81111561021a5761021a610db7565b60405190808252806020026020018201604052801561025357816020015b610240610b4c565b8152602001906001900390816102385790505b50905060005b8260ff168160ff1610156103ba5733600090815260036020526040812090610282836001610f40565b60ff1681526020808201929092526040908101600020815160608101909252805473ffffffffffffffffffffffffffffffffffffffff16825260018101805492939192918401916102d290610f65565b80601f01602080910402602001604051908101604052809291908181526020018280546102fe90610f65565b801561034b5780601f106103205761010080835404028352916020019161034b565b820191906000526020600020905b81548152906001019060200180831161032e57829003601f168201915b5050509183525050600282015460209091019060ff16600181111561037257610372610c79565b600181111561038357610383610c79565b81525050828260ff168151811061039c5761039c610fb9565b602002602001018190525080806103b290610fe8565b915050610259565b5092915050565b73ffffffffffffffffffffffffffffffffffffffff811660009081526004602052604081205460ff16156103f757506001919050565b73ffffffffffffffffffffffffffffffffffffffff821660009081526005602052604090205460ff161561042d57506002919050565b506003919050565b919050565b3360009081526004602052604090205460ff166104d9576040517f08c379a000000000000000000000000000000000000000000000000000000000815260206004820152602660248201527f4f6e6c7920616e20656d706c6f7965722063616e206d616b652074686973207260448201527f657175657374000000000000000000000000000000000000000000000000000060648201526084016101cc565b73ffffffffffffffffffffffffffffffffffffffff821660009081526005602052604090205460ff161561058f576040517f08c379a000000000000000000000000000000000000000000000000000000000815260206004820152603160248201527f456d706c6f79656520697320616c72656164792072656769737465726564207460448201527f6f20616e206f7267616e697a6174696f6e00000000000000000000000000000060648201526084016101cc565b6040805160608101825273ffffffffffffffffffffffffffffffffffffffff8416815260208101839052600091810182905233600090815260026020526040812054919250906105fb9074010000000000000000000000000000000000000000900460ff166001610f40565b336000818152600260209081526040808320805460ff871674010000000000000000000000000000000000000000027fffffffffffffffffffffff00ffffffffffffffffffffffffffffffffffffffff90911617905573ffffffffffffffffffffffffffffffffffffffff898116845260058352818420805460ff1916600190811790915584845282852080547fffffffffffffffffffffffff00000000000000000000000000000000000000009081169097179055808452919093208751815494169390941692909217835585810151805194955086946106e4938501929190910190610b93565b50604082015160028201805460ff19166001838181111561070757610707610c79565b02179055505033600090815260036020908152604080832060ff861684528252909120845181547fffffffffffffffffffffffff00000000000000000000000000000000000000001673ffffffffffffffffffffffffffffffffffffffff909116178155848201518051869450919261078892600185019290910190610b93565b50604082015160028201805460ff1916600183818111156107ab576107ab610c79565b0217905550505073ffffffffffffffffffffffffffffffffffffffff8416600090815260066020908152604090912084516107e892860190610b93565b5050505050565b3360009081526004602052604090205460ff161561088f576040517f08c379a000000000000000000000000000000000000000000000000000000000815260206004820152602960248201527f596f752061726520616c7265616479207265676973746572656420617320616e60448201527f20456d706c6f796572000000000000000000000000000000000000000000000060648201526084016101cc565b60408051808201825233808252600060208084018281529282526002815284822084518154945160ff1674010000000000000000000000000000000000000000027fffffffffffffffffffffff00000000000000000000000000000000000000000090951673ffffffffffffffffffffffffffffffffffffffff91909116179390931790925560048252838120805460ff191660011790556006825292909220835191926109409290850190610b93565b505050565b73ffffffffffffffffffffffffffffffffffffffff8116600090815260066020526040902080546060919061097990610f65565b80601f01602080910402602001604051908101604052809291908181526020018280546109a590610f65565b80156109f25780601f106109c7576101008083540402835291602001916109f2565b820191906000526020600020905b8154815290600101906020018083116109d557829003601f168201915b50505050509050919050565b3360009081526004602052604090205460ff16610a9d576040517f08c379a000000000000000000000000000000000000000000000000000000000815260206004820152602660248201527f4f6e6c7920616e20656d706c6f7965722063616e206d616b652074686973207260448201527f657175657374000000000000000000000000000000000000000000000000000060648201526084016101cc565b73ffffffffffffffffffffffffffffffffffffffff811660009081526001602052604081206002015460ff1690816001811115610adc57610adc610c79565b1415610b1a575073ffffffffffffffffffffffffffffffffffffffff166000908152600160208190526040909120600201805460ff19169091179055565b5073ffffffffffffffffffffffffffffffffffffffff166000908152600160205260409020600201805460ff19169055565b6040518060600160405280600073ffffffffffffffffffffffffffffffffffffffff1681526020016060815260200160006001811115610b8e57610b8e610c79565b905290565b828054610b9f90610f65565b90600052602060002090601f016020900481019282610bc15760008555610c07565b82601f10610bda57805160ff1916838001178555610c07565b82800160010185558215610c07579182015b82811115610c07578251825591602001919060010190610bec565b50610c13929150610c17565b5090565b5b80821115610c135760008155600101610c18565b6000815180845260005b81811015610c5257602081850181015186830182015201610c36565b81811115610c64576000602083870101525b50601f01601f19169290920160200192915050565b7f4e487b7100000000000000000000000000000000000000000000000000000000600052602160045260246000fd5b6020808252825182820181905260009190604090818501908084028601830187850186805b84811015610d6257603f198a85030186528251606073ffffffffffffffffffffffffffffffffffffffff825116865289820151818b880152610d1182880182610c2c565b928a01519291505060028210610d4e577f4e487b710000000000000000000000000000000000000000000000000000000084526021600452602484fd5b948801529487019491870191600101610ccd565b50919998505050505050505050565b803573ffffffffffffffffffffffffffffffffffffffff8116811461043557600080fd5b600060208284031215610da757600080fd5b610db082610d71565b9392505050565b7f4e487b7100000000000000000000000000000000000000000000000000000000600052604160045260246000fd5b600082601f830112610df757600080fd5b813567ffffffffffffffff80821115610e1257610e12610db7565b604051601f8301601f19908116603f01168101908282118183101715610e3a57610e3a610db7565b81604052838152866020858801011115610e5357600080fd5b836020870160208301376000602085830101528094505050505092915050565b60008060408385031215610e8657600080fd5b610e8f83610d71565b9150602083013567ffffffffffffffff811115610eab57600080fd5b610eb785828601610de6565b9150509250929050565b600060208284031215610ed357600080fd5b813567ffffffffffffffff811115610eea57600080fd5b610ef684828501610de6565b949350505050565b602081526000610db06020830184610c2c565b7f4e487b7100000000000000000000000000000000000000000000000000000000600052601160045260246000fd5b600060ff821660ff84168060ff03821115610f5d57610f5d610f11565b019392505050565b600281046001821680610f7957607f821691505b60208210811415610fb3577f4e487b7100000000000000000000000000000000000000000000000000000000600052602260045260246000fd5b50919050565b7f4e487b7100000000000000000000000000000000000000000000000000000000600052603260045260246000fd5b600060ff821660ff811415610fff57610fff610f11565b6001019291505056fea26469706673582212205f0dc07229fcf52af0daa127775b8fce3458a5fde9c7f2ad13f4cfca7775ed9164736f6c634300080a0033",
  "immutableReferences": {},
  "source": "// SPDX-License-Identifier: MIT OR Apache-2.0\r\npragma solidity ^0.8.0;\r\n\r\ninterface IERC20 {\r\n    function transfer(address recipient, uint256 amount)\r\n        external\r\n        returns (bool);\r\n}\r\n\r\ncontract User {\r\n    // Employee address => employerAddress\r\n    // Used when creating a new employee\r\n    mapping(address => address) private employee_Employer;\r\n\r\n    // Employee address => Employee Struct\r\n    // Used when creating a new Employee\r\n    mapping(address => Employee) private employee_AccountDetails;\r\n\r\n    // Organization employerAddress => Organization\r\n    // Used when creating an Organization\r\n    mapping(address => Organization) private employer_Organization;\r\n\r\n    // Employer address => employeeId => employeeAddress\r\n    // Used when creating a new Employer\r\n    // mapping(address => mapping(uint8 => address)) private member_Organization;\r\n    mapping(address => mapping(uint8 => Employee)) private member_Organization;\r\n\r\n    // Employer address => bool\r\n    mapping(address => bool) private isEmployer;\r\n\r\n    // Employee address => bool\r\n    mapping(address => bool) private isEmployee;\r\n\r\n    // User address => username\r\n    mapping(address => string) private users;\r\n\r\n    // TODO Course struct to be created to hold course details\r\n    // TODO Add course, delete course functions\r\n    // TODO Check for change in course status, emit an event on course completion that initiates streaming from employer to employee\r\n    // TODO Function to get all the learning courses added by employer\r\n    // TODO Employee address => List of courses enrolled and completed\r\n\r\n    enum Access {\r\n        Locked, // Locked by employer. Can't be unlocked by employee. No access to widrawal of funds.\r\n        Unlocked // Unlocked by employer. Can't be unlocked by employee. No access to widrawal of funds.\r\n    }\r\n\r\n    struct Employee {\r\n        address _address; // the address of the employee\r\n        string username; // an identifier for the employee\r\n        Access access; // locked(0) or unlocked(1)\r\n    }\r\n\r\n    struct Organization {\r\n        address payable owner; // the owner of the Organization\r\n        // mapping(address => Employee) employee; // the employees of the organization\r\n        uint8 numOfEmployees; // The number of employees in the organization\r\n    }\r\n\r\n    /** \r\n     * @notice - This function is used to retrieve the username based on wallet address\r\n     * @param _address - The address of the user.\r\n     */\r\n    function getUserName(address _address) external view returns(string memory username){\r\n        return users[_address];\r\n    }\r\n    \r\n    /** \r\n     * @notice - This function is used to determine the type of user\r\n     * 1 = employer. 2 = employee. 3 = unenrolled\r\n     * @param user - The address of the user.\r\n     */\r\n    function getUserType(address user) external view returns(uint256){\r\n        if(isEmployer[user]){\r\n            return 1;\r\n        }else if (isEmployee[user]){\r\n            return 2;\r\n        }else{\r\n            return 3;\r\n        }\r\n    }\r\n\r\n    /**\r\n     * @notice - This function is used to determine if the user is an employee of an organization.\r\n     */\r\n    function fetchEmployees() public view returns (Employee[] memory) {\r\n        require(isEmployer[msg.sender], \"Only an Employer can make this request\");\r\n\r\n        //determine how many employees the employer has\r\n        uint8 numOfEmployees = employer_Organization[msg.sender].numOfEmployees;\r\n        Employee[] memory employees = new Employee[](numOfEmployees);\r\n        for (uint8 index = 0; index < numOfEmployees; index++) {\r\n            employees[index] = member_Organization[msg.sender][index + 1];\r\n        }\r\n        return employees;\r\n    }\r\n\r\n    /**\r\n     * @notice - This function is used to create a new employer/owner\r\n     */\r\n    function createEmployer(string memory username) public {\r\n        require(\r\n            !isEmployer[msg.sender],\r\n            \"You are already registered as an Employer\"\r\n        );\r\n\r\n        // create a new organization\r\n        Organization memory organization = Organization({\r\n            owner: payable(msg.sender),\r\n            numOfEmployees: 0\r\n        });\r\n        employer_Organization[msg.sender] = organization;\r\n        isEmployer[msg.sender] = true;\r\n        users[msg.sender]=username;\r\n    }\r\n\r\n    /**\r\n     * @notice - This function is used to add a employee to the organization owned by an employer.\r\n     * @param _employeeAddress - The address of the employee.\r\n     * @param _employeeName - The username of the employee.\r\n     */\r\n    function addEmployee(address _employeeAddress, string memory _employeeName) public {\r\n        require(isEmployer[msg.sender], \"Only an employer can make this request\");\r\n        require(!isEmployee[_employeeAddress], \"Employee is already registered to an organization\");\r\n        // Fetch the employee\r\n        Employee memory employee = Employee({\r\n            _address: _employeeAddress,\r\n            username: _employeeName,\r\n            access: Access.Locked\r\n        });\r\n\r\n        // get next id number for the employee\r\n        uint8 employeeId = employer_Organization[msg.sender].numOfEmployees + 1;\r\n\r\n        // update employee count\r\n        employer_Organization[msg.sender].numOfEmployees = employeeId;\r\n\r\n        // update mappings\r\n        isEmployee[_employeeAddress] = true;\r\n        employee_Employer[_employeeAddress] = msg.sender;\r\n        employee_AccountDetails[_employeeAddress] = employee;\r\n        member_Organization[msg.sender][employeeId] = employee;\r\n        users[_employeeAddress]=_employeeName;\r\n    }\r\n\r\n    /**\r\n     * @notice - This function is used to change the access of an employee.\r\n     * @param _employeeAddress - The address of the employee.\r\n     */\r\n    function changeAccess(address _employeeAddress) public {\r\n        require(isEmployer[msg.sender], \"Only an employer can make this request\");\r\n\r\n        // current status\r\n        Access currentAccess = employee_AccountDetails[_employeeAddress].access;\r\n\r\n        // change the access of the employee\r\n        if (currentAccess == Access.Locked) {\r\n            employee_AccountDetails[_employeeAddress].access = Access.Unlocked;\r\n        } else {\r\n            employee_AccountDetails[_employeeAddress].access = Access.Locked;\r\n        }\r\n    }\r\n}\r\n",
  "sourcePath": "/mnt/c/blockchainrepo/kalvi-core/contracts/User.sol",
  "compiler": {
    "name": "solc",
    "version": "0.8.10+commit.fc410830.Emscripten.clang"
  },
  "schemaVersion": "3.4.4",
  "updatedAt": "2022-03-24T21:24:36.770Z",
  "networkType": "ethereum",
  "devdoc": {
    "kind": "dev",
    "methods": {
      "addEmployee(address,string)": {
        "params": {
          "_employeeAddress": "- The address of the employee.",
          "_employeeName": "- The username of the employee."
        }
      },
      "changeAccess(address)": {
        "params": {
          "_employeeAddress": "- The address of the employee."
        }
      },
      "getUserName(address)": {
        "params": {
          "_address": "- The address of the user."
        }
      },
      "getUserType(address)": {
        "params": {
          "user": "- The address of the user."
        }
      }
    },
    "version": 1
  },
  "userdoc": {
    "kind": "user",
    "methods": {
      "addEmployee(address,string)": {
        "notice": "- This function is used to add a employee to the organization owned by an employer."
      },
      "changeAccess(address)": {
        "notice": "- This function is used to change the access of an employee."
      },
      "createEmployer(string)": {
        "notice": "- This function is used to create a new employer/owner"
      },
      "fetchEmployees()": {
        "notice": "- This function is used to determine if the user is an employee of an organization."
      },
      "getUserName(address)": {
        "notice": "- This function is used to retrieve the username based on wallet address"
      },
      "getUserType(address)": {
        "notice": "- This function is used to determine the type of user 1 = employer. 2 = employee. 3 = unenrolled"
      }
    },
    "version": 1
  }
}