{
  "contractName": "User",
  "abi": [
    {
      "inputs": [
        {
          "internalType": "address",
          "name": "user",
          "type": "address"
        }
      ],
      "name": "getUserType",
      "outputs": [
        {
          "internalType": "uint256",
          "name": "",
          "type": "uint256"
        }
      ],
      "stateMutability": "view",
      "type": "function",
      "constant": true
    },
    {
      "inputs": [],
      "name": "fetchEmployees",
      "outputs": [
        {
          "components": [
            {
              "internalType": "address",
              "name": "_address",
              "type": "address"
            },
            {
              "internalType": "string",
              "name": "username",
              "type": "string"
            },
            {
              "internalType": "enum User.Access",
              "name": "access",
              "type": "uint8"
            }
          ],
          "internalType": "struct User.Employee[]",
          "name": "",
          "type": "tuple[]"
        }
      ],
      "stateMutability": "view",
      "type": "function",
      "constant": true
    },
    {
      "inputs": [],
      "name": "createEmployer",
      "outputs": [],
      "stateMutability": "nonpayable",
      "type": "function"
    },
    {
      "inputs": [
        {
          "internalType": "address",
          "name": "_employeeAddress",
          "type": "address"
        },
        {
          "internalType": "string",
          "name": "_employeeName",
          "type": "string"
        }
      ],
      "name": "addEmployee",
      "outputs": [],
      "stateMutability": "nonpayable",
      "type": "function"
    },
    {
      "inputs": [
        {
          "internalType": "address",
          "name": "_employeeAddress",
          "type": "address"
        }
      ],
      "name": "changeAccess",
      "outputs": [],
      "stateMutability": "nonpayable",
      "type": "function"
    }
  ],
  "bytecode": "0x608060405234801561001057600080fd5b50610e8f806100206000396000f3fe608060405234801561001057600080fd5b5060043610610084576000357c0100000000000000000000000000000000000000000000000000000000900480638b3f863f1161006d5780638b3f863f146100b1578063a502e808146100d2578063f403688a146100e557600080fd5b80630a67a48d1461008957806330242b76146100a7575b600080fd5b6100916100f8565b60405161009e9190610b52565b60405180910390f35b6100af61038b565b005b6100c46100bf366004610c4f565b6104c3565b60405190815260200161009e565b6100af6100e0366004610ca0565b61053c565b6100af6100f3366004610c4f565b6108ba565b3360009081526004602052604090205460609060ff1661019f576040517f08c379a000000000000000000000000000000000000000000000000000000000815260206004820152602660248201527f4f6e6c7920616e20456d706c6f7965722063616e206d616b652074686973207260448201527f657175657374000000000000000000000000000000000000000000000000000060648201526084015b60405180910390fd5b3360009081526002602052604081205474010000000000000000000000000000000000000000900460ff16908167ffffffffffffffff8111156101e4576101e4610c71565b60405190808252806020026020018201604052801561021d57816020015b61020a610a08565b8152602001906001900390816102025790505b50905060005b8260ff168160ff161015610384573360009081526003602052604081209061024c836001610d91565b60ff1681526020808201929092526040908101600020815160608101909252805473ffffffffffffffffffffffffffffffffffffffff168252600181018054929391929184019161029c90610db6565b80601f01602080910402602001604051908101604052809291908181526020018280546102c890610db6565b80156103155780601f106102ea57610100808354040283529160200191610315565b820191906000526020600020905b8154815290600101906020018083116102f857829003601f168201915b5050509183525050600282015460209091019060ff16600181111561033c5761033c610ae8565b600181111561034d5761034d610ae8565b81525050828260ff168151811061036657610366610e0a565b6020026020010181905250808061037c90610e39565b915050610223565b5092915050565b3360009081526004602052604090205460ff161561042b576040517f08c379a000000000000000000000000000000000000000000000000000000000815260206004820152602960248201527f596f752061726520616c7265616479207265676973746572656420617320616e60448201527f20456d706c6f79657200000000000000000000000000000000000000000000006064820152608401610196565b60408051808201825233808252600060208084018281529282526002815284822093518454935160ff1674010000000000000000000000000000000000000000027fffffffffffffffffffffff00000000000000000000000000000000000000000090941673ffffffffffffffffffffffffffffffffffffffff9190911617929092179092556004905220805460ff19166001179055565b73ffffffffffffffffffffffffffffffffffffffff811660009081526004602052604081205460ff16156104f957506001919050565b73ffffffffffffffffffffffffffffffffffffffff821660009081526005602052604090205460ff161561052f57506002919050565b506003919050565b919050565b3360009081526004602052604090205460ff166105db576040517f08c379a000000000000000000000000000000000000000000000000000000000815260206004820152602660248201527f4f6e6c7920616e20656d706c6f7965722063616e206d616b652074686973207260448201527f65717565737400000000000000000000000000000000000000000000000000006064820152608401610196565b73ffffffffffffffffffffffffffffffffffffffff821660009081526005602052604090205460ff1615610691576040517f08c379a000000000000000000000000000000000000000000000000000000000815260206004820152603160248201527f456d706c6f79656520697320616c72656164792072656769737465726564207460448201527f6f20616e206f7267616e697a6174696f6e0000000000000000000000000000006064820152608401610196565b6040805160608101825273ffffffffffffffffffffffffffffffffffffffff8416815260208101839052600091810182905233600090815260026020526040812054919250906106fd9074010000000000000000000000000000000000000000900460ff166001610d91565b336000818152600260209081526040808320805460ff871674010000000000000000000000000000000000000000027fffffffffffffffffffffff00ffffffffffffffffffffffffffffffffffffffff90911617905573ffffffffffffffffffffffffffffffffffffffff898116845260058352818420805460ff1916600190811790915584845282852080547fffffffffffffffffffffffff00000000000000000000000000000000000000009081169097179055808452919093208751815494169390941692909217835585810151805194955086946107e6938501929190910190610a4f565b50604082015160028201805460ff19166001838181111561080957610809610ae8565b02179055505033600090815260036020908152604080832060ff861684528252909120845181547fffffffffffffffffffffffff00000000000000000000000000000000000000001673ffffffffffffffffffffffffffffffffffffffff909116178155848201518051869450919261088a92600185019290910190610a4f565b50604082015160028201805460ff1916600183818111156108ad576108ad610ae8565b0217905550505050505050565b3360009081526004602052604090205460ff16610959576040517f08c379a000000000000000000000000000000000000000000000000000000000815260206004820152602660248201527f4f6e6c7920616e20656d706c6f7965722063616e206d616b652074686973207260448201527f65717565737400000000000000000000000000000000000000000000000000006064820152608401610196565b73ffffffffffffffffffffffffffffffffffffffff811660009081526001602052604081206002015460ff169081600181111561099857610998610ae8565b14156109d6575073ffffffffffffffffffffffffffffffffffffffff166000908152600160208190526040909120600201805460ff19169091179055565b5073ffffffffffffffffffffffffffffffffffffffff166000908152600160205260409020600201805460ff19169055565b6040518060600160405280600073ffffffffffffffffffffffffffffffffffffffff1681526020016060815260200160006001811115610a4a57610a4a610ae8565b905290565b828054610a5b90610db6565b90600052602060002090601f016020900481019282610a7d5760008555610ac3565b82601f10610a9657805160ff1916838001178555610ac3565b82800160010185558215610ac3579182015b82811115610ac3578251825591602001919060010190610aa8565b50610acf929150610ad3565b5090565b5b80821115610acf5760008155600101610ad4565b7f4e487b7100000000000000000000000000000000000000000000000000000000600052602160045260246000fd5b60028110610b4e577f4e487b7100000000000000000000000000000000000000000000000000000000600052602160045260246000fd5b9052565b6020808252825182820181905260009190604090818501908084028601830187850186805b84811015610c1c57603f198a85030186528251606073ffffffffffffffffffffffffffffffffffffffff825116865289820151818b880152805180838901528592505b80831015610bd8578183018c015188840160800152918b0191610bba565b80831115610be957856080828a0101525b928a015192610bfa888c0185610b17565b988b0198601f01601f1916969096016080019550505091870191600101610b77565b50919998505050505050505050565b803573ffffffffffffffffffffffffffffffffffffffff8116811461053757600080fd5b600060208284031215610c6157600080fd5b610c6a82610c2b565b9392505050565b7f4e487b7100000000000000000000000000000000000000000000000000000000600052604160045260246000fd5b60008060408385031215610cb357600080fd5b610cbc83610c2b565b9150602083013567ffffffffffffffff80821115610cd957600080fd5b818501915085601f830112610ced57600080fd5b813581811115610cff57610cff610c71565b604051601f8201601f19908116603f01168101908382118183101715610d2757610d27610c71565b81604052828152886020848701011115610d4057600080fd5b8260208601602083013760006020848301015280955050505050509250929050565b7f4e487b7100000000000000000000000000000000000000000000000000000000600052601160045260246000fd5b600060ff821660ff84168060ff03821115610dae57610dae610d62565b019392505050565b600281046001821680610dca57607f821691505b60208210811415610e04577f4e487b7100000000000000000000000000000000000000000000000000000000600052602260045260246000fd5b50919050565b7f4e487b7100000000000000000000000000000000000000000000000000000000600052603260045260246000fd5b600060ff821660ff811415610e5057610e50610d62565b6001019291505056fea264697066735822122095485877ad6dd29e958d43e47eb44bafb00baf08ee4737a91153c6cbf7961e4564736f6c634300080a0033",
  "immutableReferences": {},
  "source": "// SPDX-License-Identifier: MIT OR Apache-2.0\r\npragma solidity ^0.8.0;\r\n\r\ninterface IERC20 {\r\n    function transfer(address recipient, uint256 amount)\r\n        external\r\n        returns (bool);\r\n}\r\n\r\ncontract User {\r\n    // Employee address => employerAddress\r\n    // Used when creating a new employee\r\n    mapping(address => address) private employee_Employer;\r\n\r\n    // Employee address => Employee Struct\r\n    // Used when creating a new Employee\r\n    mapping(address => Employee) private employee_AccountDetails;\r\n\r\n    // Organization employerAddress => Organization\r\n    // Used when creating an Organization\r\n    mapping(address => Organization) private employer_Organization;\r\n\r\n    // Employer address => employeeId => employeeAddress\r\n    // Used when creating a new Employer\r\n    // mapping(address => mapping(uint8 => address)) private member_Organization;\r\n    mapping(address => mapping(uint8 => Employee)) private member_Organization;\r\n\r\n    // Employer address => bool\r\n    mapping(address => bool) private isEmployer;\r\n\r\n    // Employee address => bool\r\n    mapping(address => bool) private isEmployee;\r\n\r\n    // TODO Course struct to be created to hold course details\r\n    // TODO Add course, delete course functions\r\n    // TODO Check for change in course status, emit an event on course completion that initiates streaming from employer to employee\r\n    // TODO Function to get all the learning courses added by employer\r\n    // TODO Employee address => List of courses enrolled and completed\r\n\r\n    enum Access {\r\n        Locked, // Locked by employer. Can't be unlocked by employee. No access to widrawal of funds.\r\n        Unlocked // Unlocked by employer. Can't be unlocked by employee. No access to widrawal of funds.\r\n    }\r\n\r\n    struct Employee {\r\n        address _address; // the address of the employee\r\n        string username; // an identifier for the employee\r\n        Access access; // locked(0) or unlocked(1)\r\n    }\r\n\r\n    struct Organization {\r\n        address payable owner; // the owner of the Organization\r\n        // mapping(address => Employee) employee; // the employees of the organization\r\n        uint8 numOfEmployees; // The number of employees in the organization\r\n    }\r\n\r\n    /** \r\n     * @notice - This function is used to determine the type of user\r\n     * 1 = employer. 2 = employee. 3 = unenrolled\r\n     * @param user - The address of the user.\r\n     */\r\n    function getUserType(address user) external view returns(uint256){\r\n        if(isEmployer[user]){\r\n            return 1;\r\n        }else if (isEmployee[user]){\r\n            return 2;\r\n        }else{\r\n            return 3;\r\n        }\r\n    }\r\n\r\n    /**\r\n     * @notice - This function is used to determine if the user is an employee of an organization.\r\n     */\r\n    function fetchEmployees() public view returns (Employee[] memory) {\r\n        require(isEmployer[msg.sender], \"Only an Employer can make this request\");\r\n\r\n        //determine how many employees the employer has\r\n        uint8 numOfEmployees = employer_Organization[msg.sender].numOfEmployees;\r\n        Employee[] memory employees = new Employee[](numOfEmployees);\r\n        for (uint8 index = 0; index < numOfEmployees; index++) {\r\n            employees[index] = member_Organization[msg.sender][index + 1];\r\n        }\r\n        return employees;\r\n    }\r\n\r\n    /**\r\n     * @notice - This function is used to create a new employer/owner\r\n     */\r\n    function createEmployer() public {\r\n        require(\r\n            !isEmployer[msg.sender],\r\n            \"You are already registered as an Employer\"\r\n        );\r\n\r\n        // create a new organization\r\n        Organization memory organization = Organization({\r\n            owner: payable(msg.sender),\r\n            numOfEmployees: 0\r\n        });\r\n        employer_Organization[msg.sender] = organization;\r\n        isEmployer[msg.sender] = true;\r\n    }\r\n\r\n    /**\r\n     * @notice - This function is used to add a employee to the organization owned by an employer.\r\n     * @param _employeeAddress - The address of the employee.\r\n     * @param _employeeName - The username of the employee.\r\n     */\r\n    function addEmployee(address _employeeAddress, string memory _employeeName) public {\r\n        require(isEmployer[msg.sender], \"Only an employer can make this request\");\r\n        require(!isEmployee[_employeeAddress], \"Employee is already registered to an organization\");\r\n        // Fetch the employee\r\n        Employee memory employee = Employee({\r\n            _address: _employeeAddress,\r\n            username: _employeeName,\r\n            access: Access.Locked\r\n        });\r\n\r\n        // get next id number for the employee\r\n        uint8 employeeId = employer_Organization[msg.sender].numOfEmployees + 1;\r\n\r\n        // update employee count\r\n        employer_Organization[msg.sender].numOfEmployees = employeeId;\r\n\r\n        // update mappings\r\n        isEmployee[_employeeAddress] = true;\r\n        employee_Employer[_employeeAddress] = msg.sender;\r\n        employee_AccountDetails[_employeeAddress] = employee;\r\n        member_Organization[msg.sender][employeeId] = employee;\r\n    }\r\n\r\n    /**\r\n     * @notice - This function is used to change the access of an employee.\r\n     * @param _employeeAddress - The address of the employee.\r\n     */\r\n    function changeAccess(address _employeeAddress) public {\r\n        require(isEmployer[msg.sender], \"Only an employer can make this request\");\r\n\r\n        // current status\r\n        Access currentAccess = employee_AccountDetails[_employeeAddress].access;\r\n\r\n        // change the access of the employee\r\n        if (currentAccess == Access.Locked) {\r\n            employee_AccountDetails[_employeeAddress].access = Access.Unlocked;\r\n        } else {\r\n            employee_AccountDetails[_employeeAddress].access = Access.Locked;\r\n        }\r\n    }\r\n}\r\n",
  "sourcePath": "/mnt/c/blockchainrepo/kalvi-core/contracts/User.sol",
  "compiler": {
    "name": "solc",
    "version": "0.8.10+commit.fc410830.Emscripten.clang"
  },
  "schemaVersion": "3.4.4",
  "updatedAt": "2022-03-18T14:28:50.575Z",
  "networkType": "ethereum",
  "devdoc": {
    "kind": "dev",
    "methods": {
      "addEmployee(address,string)": {
        "params": {
          "_employeeAddress": "- The address of the employee.",
          "_employeeName": "- The username of the employee."
        }
      },
      "changeAccess(address)": {
        "params": {
          "_employeeAddress": "- The address of the employee."
        }
      },
      "getUserType(address)": {
        "params": {
          "user": "- The address of the user."
        }
      }
    },
    "version": 1
  },
  "userdoc": {
    "kind": "user",
    "methods": {
      "addEmployee(address,string)": {
        "notice": "- This function is used to add a employee to the organization owned by an employer."
      },
      "changeAccess(address)": {
        "notice": "- This function is used to change the access of an employee."
      },
      "createEmployer()": {
        "notice": "- This function is used to create a new employer/owner"
      },
      "fetchEmployees()": {
        "notice": "- This function is used to determine if the user is an employee of an organization."
      },
      "getUserType(address)": {
        "notice": "- This function is used to determine the type of user 1 = employer. 2 = employee. 3 = unenrolled"
      }
    },
    "version": 1
  }
}